:100000000C9434000C943E000C943E000C943E0082
:100010000C943E000C943E000C943E000C943E0068
:100020000C943E000C943E000C943E000C943E0058
:100030000C943E000C943E000C943E000C943E0048
:100040000C943E000C943E000C943E000C943E0038
:100050000C943E000C943E000C943E000C943E0028
:100060000C943E000C943E0011241FBECFEFD8E04C
:10007000DEBFCDBF0E9440000C9464000C940000D1
:100080004AB1436F4AB9259A249A70E260E3E0E1ED
:1000900049B142FB882780F990E043FB222720F9F1
:1000A00030E0AC0142275327892B31F0232B21F07C
:1000B000452B31F4E5B9ECCF452B21F075B9E8CFEC
:0C00C00065B9E6CF15B8E4CFF894FFCF87
:00000001FF
